:020000040000fa
:080000000002040000000000f2
:020000040000fa
:100400004f9920000e7f24000e018800000000009c
:100410000c000700e011210001002000110007007e
:10042000000020000000e000020032000000020096
:1004300000000000c80e0200000000000040da00ca
:100440000000fe004440a900800220000000e000ff
:100450000300320000002000a00188004440a800f2
:100460000000060091018800800078000000eb0089
:1004700015003700e280400032a0b4009101ba00bc
:10048000e280400032a0b4009102ba00e280400055
:1004900032a0b4000002eb00472bde00f507b200eb
:1004a000602ce10004003a000059eb008301e900f0
:1004b000fdff3e00040037006128e100010032002a
:1004c0000082eb00040007001101ba000200e00006
:1004d000e8ff3a00000006003159ba008301e90044
:1004e0000c0032002159ba008301e90008003200f3
:1004f0000400e00003003a00e280400032a0b400b3
:10050000f5ff370011d9ba008301e900faff3a007c
:100510008100e800e180400032a0b4000000060045
:100520000040da000000fe000a00fa0080017800b6
:10053000e20f500028003e00904c8000e10f500078
:1005400008003200802320000000e0000500320097
:10055000042320002523200046232000800178006a
:10056000040037000422200025222000462220001b
:1005700083222000144090000004e00004003500b5
:100580008009eb00144090000074a0001042980015
:10059000154090000028a30003003a001540900089
:1005a0000024a000904298008001eb000700370073
:1005b000154090000008a300fdff320063c07800e2
:1005c0000000fb00000b78008301e800828f5100df
:1005d000f7ff3a000800370030002000b0bf9f004e
:1005e000c3bf9f00d1bf9f00e2bf9f006a8057003a
:1005f00000c0da006fb99700020078000080fa00ae
:1006000000000600881f7800000478005001be003a
:100610004000be00040040008580480006014900fb
:1006200087814900009cbe000294be000400e100e6
:100630000588e1000690e1000798e1000200310022
:10064000680044001008e8004f047800000006002d
:10065000f4874700889fbe008a9fbe008c9fbe0023
:100660008e1f78000205be000004be00d4b79f00b4
:10067000e5b79f00f6b79f0087bf9f000000eb0023
:10068000c0b79f00b0b79f00a0b79f0090b79f0072
:1006900080b79f000d042000bfb097004fb09700b7
:1006a000000140000000e0000f003d004f08de00a8
:1006b00000007100c0b79f009e00070001003d00d0
:1006c00012002000a100070001003d0012002000e0
:1006d000a6000700b1000700b60007000f004000a9
:1006e000c8ff0700220037004f08de000006710037
:1006f000ccb79f008f00070001003d0012002000d2
:100700009200070001003d00120020009700070042
:10071000a20007000fb297009fb297002fb3970077
:10072000bfb39700a90007000000520081805a0063
:1007300002015b0083815b0080b79f0091b79f003f
:10074000a2b79f00b3b79f000007eb009f00070010
:100750000020e10001a8e10002b0e10003b8e100df
:10076000010031001e0020000e005600c0b79f009f
:100770004fb297000400e000070035001000200091
:10078000010020006011b800080470008984700026
:100790000a0571008b8571008d06e900beff3a00e5
:1007a0000400e00003003d00820007000f0040004d
:1007b00094ff07004fa897000000e00004003a00f3
:1007c0000fb497009fb497002fb59700bfb597005f
:1007d000940007004f0778004f06be004f05be008b
:1007e0004f04be004f01b10000000600881f7800d2
:1007f00018002000881f780095ff07008f87e90008
:100800004f04780000000600801feb0090ff0700f7
:100810008f87e90000000600889fbe008a9fbe0007
:100820008c1f78006e00070007003d007300070072
:10083000e00f5b00e08f5b0007003d003200070027
:100840000006eb00040037003400070002003d0002
:100850002a0007001c00200072000700e3ff0700c9
:100860000203be000002be000c00e00001003200e6
:10087000220007000400be000601be004f067800fb
:100880004f05be004f04be0000000600889fbe005a
:100890008a9fbe008c1f78005100070005003d00b4
:1008a00056000700e00f5b00e08f5b0006003d0094
:1008b000040037001900070003003d006000b80085
:1008c0006011b8001000070056000700ceff0700b7
:1008d0000203be000002be000c00e0000100320076
:1008e000060007000400be000601be004f067800a7
:1008f0004f05be004f04be00000006006000b800b7
:100900006011b800000037000402500085825800d2
:100910000603590087835900000006000006eb001b
:10092000e00f5200e08f5a00e00f5b00e08f5b00a9
:10093000000006000180400090b79f000001eb001e
:100940008fb097000100e000000006000200700078
:1009500090b79f000180400080b79f000001eb002e
:10096000ffa897000100e0000000060002007000f0
:1009700080b79f00018040006faa9700cf20de0063
:1009800001007000f0af9f00040242002500070044
:100990004f18de000002720000000600e4af9f0066
:1009a0000804440089844c000a054d008b854d00e5
:1009b000000006003fb29700cfb297005fb39700e8
:1009c000efb3970000fe2f00000006003fb0970035
:1009d000cfb097005fb19700efb19700000006001d
:1009e0000205be000004be00e00f5000e08f58007a
:1009f000e00f5900e08f5900000006006000b800c9
:100a00006011b80008045000898458000a05590094
:100a10008b8559001c002000e00f5200e08f5a0027
:100a2000000006000800be000a01be00000006002b
:100a3000800078003004e000feff3a000100500022
:100a40000000e900000006008001eb000200370012
:100a5000817178008301e800828f5100fcff3a0029
:100a6000000006000c00fa00889fbe000004780019
:100a7000cfb09700f0ff2700d0bf9f008004eb00ad
:100a800099bf9f0088bf9f00a8bf9f00200c200037
:100a9000b0bf9f00788157007080570008000700a2
:100aa0000fb89700094878000fb897000804500065
:100ab000080078004f04be000080fa000000060025
:100ac000fe874700889fbe008a9fbe008c9fbe00a5
:100ad0008e1f7800f0b79f000107780082bf9f004b
:100ae0000000eb00a0b79f009f0237008006eb00dc
:100af00050c2b30080cf5000090032000100fb005b
:100b0000ffb09700a3020700e10f400096023200f9
:100b1000afb097008100e800a1b79f0092023700b4
:100b20009e407800d0c2b30080cf50000c0032004d
:100b300007003c006d40500080cf50000a0032009a
:100b40006b40400080cf50000e003a000800370094
:100b500000c3b30080cf50000a003a0006003700ff
:100b60000d30a000050037000d00a0000300370085
:100b70000d10a000010037000d20a0000e07e800b6
:100b8000e7ff37000d18a300010032000d00a1009f
:100b90000d38a300010032000d20a1000100fb0070
:100ba00002fd2f0002004000e90f50000e003e0041
:100bb0000002eb00c4b79f0082017800cfb297001b
:100bc0006a28b9001e01fb00000141000301410039
:100bd000c2b79f005e00fb0003004000e90f500019
:100be0000b003e00f5ff37000006eb00ccb79f007e
:100bf000a0c2b30080cf500005003a000fb89700a4
:100c0000c000780080bf9f00c1b79f000e07e800ba
:100c10000001eb00b2b79f00e0c2b3009e4f10008e
:100c200018003a000de0a0008e00e800644050007b
:100c3000914f100002003200010778000c003700cd
:100c40000fba9700c402780084bf9f00b5b79f0019
:100c50000e87e8000b0037003fb697006a60b900c6
:100c60000000410003004000b0b79f000e07e800fd
:100c70001e01fb0003fd2f0003004100e90f50009f
:100c8000f5ff3600be407800e1d79f00c0c6b30034
:100c900080cf5000220032000f003c00694050001d
:100ca00080cf50007700320004003c000104e000d7
:100cb000310232006b4050000f00370040c6b300d5
:100cc00080cf5000930032006540400080cf50003c
:100cd0008b003a008f00370030c7b30080cf500040
:100ce0001a00320007003c006440500080cf5000e2
:100cf000110032000040e80080cf500080003a0030
:100d00000f00370050c7b30080cf50008000320082
:100d10006340400080cf500079003a00090037005e
:100d2000000028000d48a30001003a000001200047
:100d300080867600d3ff37000d60a0007500370075
:100d40000d50a0000d70a000720037008fb8970002
:100d50004100780081bf9f00000478000000e0009f
:100d600001003a00c89320008004eb000100370026
:100d70008104e80089007800088044001004e00045
:100d8000fbff3a003fb197000200e0000300320091
:100d9000890f510001003100820478000002eb004d
:100da000e4af9f00cfb29700898f52000200360057
:100db00009805200e0af9f004368de00e10660005a
:100dc0001b003a000d06780009003700ffb09700bd
:100dd00000022000ef010700e10f40000300320095
:100de0002fb097000000e800a0b79f000c06e800b5
:100df000efa89700810f5600f4ff3a000081eb0046
:100e0000e2af9f000a003700880078003100fb0045
:100e100001047800ffb09700de010700e10f4000f9
:100e2000030032002fb297000402e800a4b79f002d
:100e30000900e90080047800e10f4000f2ff3a0069
:100e40000006eb000d00e0000a003a00c601370082
:100e5000ffb0970000022000ce010700e10f400024
:100e600003003200afb297008502e800a5b79f00eb
:100e70000c06e8006fa89700800f5600f4ff3a00b8
:100e8000b90137008fb897004100780081bf9f00fb
:100e9000cf80de0001017800820178000205be00eb
:100ea0000004be000203be000002be004822de00b5
:100eb000482edd0004027600e4d79f000d48a30011
:100ec0000a0032000404e00008003200e14f420052
:100ed0000600320071fd2f000180470004487800b1
:100ee000184098002900200002003700f0d79f002a
:100ef0001900200072fd2f0002844700a1ff370077
:100f000064fd2f0004844700190020009dff370076
:100f10000d0cb3000d007800000cb20028003a0060
:100f20000d00e00005003d008fba97004505be00aa
:100f30004504be0085bf9f00140037000d48a30084
:100f40000b0032000fbe97004c00be008cbf9f000c
:100f50004f89de00cf91de000002be000203780060
:100f6000820378000605be000404be0007003700b7
:100f70008fb897004100780081bf9f00000478007f
:100f8000cfc4de00090578008a057800e00f540020
:100f9000e08f5c00e00f5d00e08f5d001f003d0012
:100fa0003d00b3006000b8006011b80008045000b4
:100fb000898458000a0559008b85590017003700ad
:100fc0000d00e00005003d000fb997004205be008e
:100fd0004204be0082bf9f00100037000d48a300ee
:100fe000070032000fba97004400be0084bf9f0084
:100ff0006011b8000205be000004be000700370003
:101000008fba97004500780085bf9f0000047800e4
:10101000090020000a0020000b0020003fb69700c6
:101020000c00e00007003a00e00f5400e08f5c0085
:10103000e00f5d00e08f5d0002003a00100020002c
:10104000b0b79f008d007800010cb200e1b79f009f
:1010500000042000808f50003000320003003c006c
:101060000100e000080032004000370000082000c6
:101070006fb19700800f510014003200000c200067
:10108000800f510039003a0014c0b300c589200018
:101090000b0037000400fb004300dd0005004000aa
:1010a0005001be004000be000040e10001c8e10068
:1010b00002d0e10003d8e1002b0039000442e8002f
:1010c000f44f5200f3ff3a002700370000012000e0
:1010d000010020006011b80014c0b3000040e1001e
:1010e00001c8e10002d0e10003d8e1001e00390090
:1010f000450020000000d0008180d2000281d20093
:101100008381d2008502e900faff3a000442e80038
:10111000f04f5200f1ff3a0013003700800020002a
:10112000010020006011b80014c0b3000040e100cd
:1011300001c8e10002d0e10003d8e1000a00390053
:101140003c0020000000d0008180d2000281d2004b
:101150008381d2000c06e900faff3a000442e8005d
:10116000f54f5200f1ff3a00e4d79f00efd097000f
:101170000100fb003fb19700820f500002003d00cc
:10118000e2d79f00040037003fb29700800f520063
:1011900001003d00b0b79f00cfb297000500e0000e
:1011a0000400320063806600020032008502e9001c
:1011b000c5b79f000de8a3000b0032004fb69700a3
:1011c0003fb09700800f560003003c008000eb000a
:1011d000c1b79f00040037004fb197003fb297009e
:1011e00004015100c2b79f00efd297000500fb0039
:1011f0000006eb00dcaf9f00cfb09700808f50005f
:101200000200340000805000d0af9f000d28a300e2
:1012100037003200e18066000d18a3000c00320098
:10122000d00220000100e00001003a000080e90047
:10123000ffb09700d7000700e10f40000e0032001a
:101240002fb197000201e800a2b79f000a00370003
:101250000100e00008003200ffb09700000220000b
:10126000cc000700e10f4000030032002fb29700ce
:101270000402e800a4b79f00dfaa97000500e00081
:101280000f0032000006eb00ffb0970000032000c3
:10129000c0000700e10f4000030032002fb09700ac
:1012a0000000e800a0b79f000c06e800dfa8970048
:1012b000810f5600f4ff3a000001eb00d2af9f000f
:1012c0003fb29700c320dd004089200080804000ad
:1012d00091b79f004220dd006400500080b79f005e
:1012e0006320b900f0af9f00630650008400370010
:1012f000dfaa97000500e000110032006880660058
:101300000f003a0000067800ffb0970000022000ae
:10131000a0000700e10f4000030032002fb097004b
:101320000000e800a0b79f000c06e800dfa89700c7
:10133000810f5600f4ff3a000001eb00d2af9f008e
:10134000e18066000d18a3000c003200d0022000de
:101350000100e00001003a000080e900ffb09700c2
:101360008c000700e10f4000d5ff32002fb297003c
:101370000402e800a4b79f00d1ff37000100e0009d
:10138000cfff3200ffb0970000022000810007006d
:10139000e10f4000caff3200afb297008502e800bb
:1013a000a5b79f00c6ff370000042000efb09700ec
:1013b000808f50003100320003003c000100e0004b
:1013c000080032003e003700000820006fb197008f
:1013d000800f510011003200000c2000800f5100de
:1013e00037003a001fb097003002be002003be0055
:1013f0000800be000a01be00fcfc0700a40020009b
:10140000050020006033b800fffc070004c3b300f0
:1014100004424000e4d79f002900370035942000a3
:10142000d5b79f000d58a30002003a004095200058
:10143000d0b79f0014002000050020006033b800e2
:101440008fb097008100e900050033000402d0004e
:101450008582d2000683d2008783d200f9ff37004d
:101460000800be000a01be00e0fc07006f0060003b
:101470005fb1970062407800100037001400200030
:10148000050020006033b8000c0078000000e9007f
:10149000050033000402d0008582d2000683d2000a
:1014a0008783d200f9ff37000800be000a01be00a2
:1014b000cefc0700674060000043b000e0d79f000b
:1014c000efd097000100fb00ffb09700310007004c
:1014d000e10f4000030032002fb197000201e80045
:1014e000a2b79f001fb297006802520094b79f00f6
:1014f0008fb29700e482520085b79f0063065600c2
:10150000d0ff2f003fb197000090b9007faa97004d
:101510000000420063005000800f5600a2ff3a0016
:101520000d38a30010003200dfaa97000500e0008c
:101530000d0034000006eb00ffb097000002200011
:1015400014000700e10f4000030032002fb09700a5
:101550000000e800a0b79f000c06e800dfa8970095
:10156000810f5600f4ff3a00be407800e1d79f009b
:101570000104e0005dfd3a002fb097004f077800ae
:101580004f06be004f05be004f04be00ef01b10084
:1015900000000600889fbe0000017800010478006a
:1015a000b10090000118a3003d0032000198a30093
:1015b00003003a00180090000000e00038003a00f4
:1015c0000190a0003104980082047800f90fb20065
:1015d000180090000000e00002003a00280090008f
:1015e000000c7800ea8f540006003a0038009000a2
:1015f0000078a30003003a0088007800d0002000a3
:10160000e4ff07009800900058009000808f500081
:101610000b0032000100e800100498001800780068
:1016200009587800000c780011c0b3000099200020
:1016300001487800ea8f5400060032001900370094
:1016400088007800094078001900070080047800bd
:1016500014003700380090000088a3001100320009
:1016600018019000a800900048009000aefb070011
:1016700098009000810f5000040032003800900064
:101680000003b300300498008084eb000000eb00fe
:101690001004980028009000000c7800010037002a
:1016a0008084eb00090078004f04be0000000600b3
:1016b0000200fa00889fbe00a0ff9f00010478008e
:1016c000b1009000810478000904b20002003200e9
:1016d0000000fb00360037000118a30005003a00a7
:1016e0000103b30031049800190498000080eb0056
:1016f0002f003700580090000000e00006003a007c
:101700004800900012002000e680570086fb07008a
:101710001904980024003700280090000000e00021
:1017200008003a00c098200020049800000c7800bf
:101730002000200050049800100498000130a00000
:101740003104980018019000a80090004800900013
:1017500075fb070028009000000c78000080eb006b
:101760001004980018007800aff89700015878002e
:10177000000c78002ff89700ea4f50000a003a005a
:10178000380090000088a300070032001801900084
:10179000a80090004800900063fb0700190498001f
:1017a000a8009000010c7800aff897000100fb0042
:0c17b0004f04be000080fa00000006009c
:020000040000fa
:1000080090020000900200009002000090020000a0
:100018009002000090020000900200009002000090
:100028009002000090020000900200009002000080
:100038009002000090020000900200009002000070
:10004800441200009002000090020000f80e000028
:10005800f00e0000660c0000900200009002000004
:100068009002000090020000900200009002000040
:100078009002000090020000900200009002000030
:100088009002000090020000900200009002000020
:100098009002000090020000900200009002000010
:1000a8009002000090020000900200009002000000
:1000b80090020000900200009002000090020000f0
:1000c80090020000900200009002000090020000e0
:1000d80090020000900200009002000090020000d0
:1000e80090020000900200009002000090020000c0
:1000f80090020000900200009002000090020000b0
:10010800900200009002000090020000900200009f
:10011800900200009002000090020000900200008f
:10012800900200009002000090020000900200007f
:10013800900200009002000090020000900200006f
:10014800900200009002000090020000900200005f
:10015800900200009002000090020000900200004f
:10016800900200009002000090020000900200003f
:10017800900200009002000090020000900200002f
:10018800900200009002000090020000900200001f
:10019800900200009002000090020000900200000f
:1001a80090020000900200009002000090020000ff
:1001b80090020000900200009002000090020000ef
:1001c80090020000900200009002000090020000df
:1001d80090020000900200009002000090020000cf
:1001e80090020000900200009002000090020000bf
:0801f8009002000090020000db
:020000040000fa
:10020800900200009002000090020000900200009e
:10021800900200009002000090020000900200008e
:10022800900200009002000090020000900200007e
:10023800900200009002000090020000900200006e
:10024800441200009002000090020000f80e000026
:10025800f00e0000660c0000900200009002000002
:10026800900200009002000090020000900200003e
:10027800900200009002000090020000900200002e
:10028800900200009002000090020000900200001e
:10029800900200009002000090020000900200000e
:1002a80090020000900200009002000090020000fe
:1002b80090020000900200009002000090020000ee
:1002c80090020000900200009002000090020000de
:1002d80090020000900200009002000090020000ce
:1002e80090020000900200009002000090020000be
:1002f80090020000900200009002000090020000ae
:10030800900200009002000090020000900200009d
:10031800900200009002000090020000900200008d
:10032800900200009002000090020000900200007d
:10033800900200009002000090020000900200006d
:10034800900200009002000090020000900200005d
:10035800900200009002000090020000900200004d
:10036800900200009002000090020000900200003d
:10037800900200009002000090020000900200002d
:10038800900200009002000090020000900200001d
:10039800900200009002000090020000900200000d
:1003a80090020000900200009002000090020000fd
:1003b80090020000900200009002000090020000ed
:1003c80090020000900200009002000090020000dd
:1003d80090020000900200009002000090020000cd
:1003e80090020000900200009002000090020000bd
:0803f8009002000090020000d9
:020000040000fa
:1017bc000a4100006e6700003a250000642c00000e
:1017cc00256400002c250000642c0000256400001a
:1017dc002c250000642c0000256400002c52000015
:1017ec003a250000642c00004c3a000025640000ef
:1017fc0020550000493a000025640000000000005c
:020000040000fa
:10180c000000fa002c03a9002c23a9002c43a900ea
:10181c002c63a9002c83a9002ca3a900c002a8004a
:10182c00c022a800c802a800c822a800c842a8006c
:10183c00c862a80023c3bf007f40600023e3b70049
:10184c001132200091407800c0cfb30000c060007e
:10185c0021e3b70020c3bf007f40600020e3b70046
:10186c002043a8002143a9002343a80023c3bf00a1
:10187c003040b30023e3b70025e3a900f0c3b30065
:10188c0024e3b700213220009140780030ccb30023
:10189c0000c0600022e3b7003003a80085a0a900b7
:1018ac0095a0a800803e200001002000fc0007004d
:1018bc0021e3a8000000eb000080fa000000060005
:1018cc003600f800809fbe00829fbe00849fbe0041
:1018dc00869fbe00889fbe000000fa002016800084
:1018ec0001002000a0448800b1448800004480001e
:1018fc000000e8000044880000448000e80f50001d
:10190c0068003a000000eb0000448800d700070094
:10191c009ac8bf000004e0000b003a0010c0b300ee
:10192c009ae8b70000188000204488003003a90012
:10193c003043a9003063a9003083a90030a3a9006b
:10194c003023a800450037009ac8bf00e14f500073
:10195c000b003a00001880003044880020c0b3000f
:10196c009ae8b7003003a9003023a9003063a9001e
:10197c003083a90030a3a9003043a80037003700fa
:10198c009ac8bf00e24f50000b003a0000188000cc
:10199c004044880030c0b3009ae8b7003003a90077
:1019ac003023a9003043a9003083a90030a3a9003b
:1019bc003063a800290037009ac8bf00e34f5000dd
:1019cc000b003a00001880005044880040c0b3005f
:1019dc009ae8b7003003a9003023a9003043a900ce
:1019ec003063a90030a3a9003083a8001b00370086
:1019fc009ac8bf00e44f50000b003a00001880005a
:101a0c006044880050c0b3009ae8b7003003a900c6
:101a1c003023a9003043a9003063a9003083a9000a
:101a2c0030a3a8000d0037009ac8bf00e54f500046
:101a3c000a003a0000188000704488000040eb0057
:101a4c009ae8b7003023a9003043a9003063a900fd
:101a5c003083a90030a3a9003003a80021448000e2
:101a6c003044800080804000404480000080400072
:101a7c0032002000110009000200d80080448800c8
:101a8c00514480006044800080804000704480009d
:101a9c000080400032002000110009000200d80034
:101aac009044880000802000020820008000eb0099
:101abc00e2fb0700a0448000b14480009244800007
:101acc008344800074448000654480005644800048
:101adc00474480003844800029448000809fbe0029
:101aec00821f7800831f7800841f7800851f780080
:101afc00861f7800871f7800881f7800891f780060
:101b0c00e0bd2800801f780000802000d2fb070079
:101b1c00f6875700008020001301070085a0a9005c
:101b2c000080fa004f04be004f03be004f02be00ff
:101b3c004f01be004f00be003600f9000040060009
:101b4c000000fa00000037008144800030062000bd
:101b5c00808f500009003400814480002008200050
:101b6c00808f500005003c00e28f20000300200015
:101b7c001000200068010700170037008044800027
:101b8c00fd0f500009003400814480000005200046
:101b9c00808f500005003c00e2bf200003002000b5
:101bac00100020005c0107000b003700814480000e
:101bbc00b0082000808f5000070034008144800062
:101bcc00f03f2000808f500003003c006011b800f3
:101bdc004006200050010700914480003006200090
:101bec00808f5000090034009144800020082000b0
:101bfc00808f500005003c00e28f20000300200085
:101c0c002000200044010700cfff370090448000e3
:101c1c00fd0f5000090034009144800000052000a5
:101c2c00808f500005003c00e2bf20000300200024
:101c3c002000200038010700c3ff370091448000ca
:101c4c00b0082000808f5000bfff3400914480000a
:101c5c00f03f2000808f5000bbff3c006011b800ab
:101c6c00400620002c010700b7ff37000000fa00e7
:101c7c0098c8bf000004e00004003a0010c0b30094
:101c8c0098e8b700ca82a900030037000040eb00b7
:101c9c0098e8b700ca82a8000080fa00000006008d
:101cac000c00fa0040079800510798006000b8003b
:101cbc0020079800310798006000b800008fbe0024
:101ccc006000b80020079800310798001200370018
:101cdc006000b800008fbe00040037001000200028
:101cec00010020001e0f40005e9748004e0090003f
:101cfc00de009000be0f1000ae8f1800f7ff35000d
:101d0c002e009000be00900061004000e080480072
:101d1c0020079800310798002e019000be0190001a
:101d2c002000200001002000800f5100818f5900fd
:101d3c00e7ff34000000eb000080fa000000060012
:101d4c000000fa000000eb00201688000000eb00f9
:101d5c00001688000000eb00601688000000eb0005
:101d6c004016880000682000103a8800c062a80065
:101d7c00ca82a800c282a8000000eb000080fa0012
:101d8c00000006000000fa00edff07001900070034
:101d9c00300020009d01070099fe0700a9000700f4
:101dac00200020009901070000c1b3000c010700be
:101dbc00b20220000300200040062000d6000700dd
:101dcc005fff07002003200001002000b4ff070084
:101ddc00fcff37000000fa008580a9000080fa00a3
:101dec00004006000000fa008560a9000080fa009f
:101dfc00004006000000fa00e000200020358800ba
:101e0c007136800000302000008070007036880031
:101e1c00c9c2a800100020004011880021e2a900ce
:101e2c0021a2a9002182a9002162a900112220006f
:101e3c0091407800c0cfb30000c0600021e2b70031
:101e4c0020e2a90020c2a90020a2a9002082a9009a
:101e5c002062a900012220009140780090cfb300ad
:101e6c0000c0600020e2b7002002a90023e2a90014
:101e7c0023c2a90023a2a9002362a9002342a9001e
:101e8c002322a9002302a90022c2bf00f043b20002
:101e9c0022e2b70022a2a9002282a9002262a90094
:101eac002242a9002222a9002202a90021e2a800b4
:101ebc002342a8000080fa00000006000000fa008f
:101ecc0031e2a90031a2a9003182a9003162a90036
:101edc001123200091407800c0cfb30000c06000f7
:101eec0031e2b70030e2a90030c2a90030a2a9004b
:101efc003082a9003062a9000123200091407800b3
:101f0c0090cfb30000c0600030e2b7003002a900ef
:101f1c0070012000c011880033e2a90033c2a9006f
:101f2c0033a2a9003362a9003342a9003322a900cd
:101f3c003302a90032c2bf00f043b20032e2b70054
:101f4c0032a2a9003282a9003262a9003242a90051
:101f5c003222a9003202a90031e2a8003342a800c3
:101f6c000080fa00000006000600fa002007980026
:101f7c000000eb00100798000000eb00000f780049
:101f8c002e009000a7fa0700000f78000000eb006d
:101f9c00100798000d0037001e009000800078009c
:101fac002e00900000804000104078000000fb00e4
:101fbc0020118800c02b20000100200038ff0700f2
:101fcc001e0090000000e800100798001e00900012
:101fdc009e0f5000f0ff3500d0002000201188002b
:101fec000000eb000080fa00000006000200fa007e
:101ffc0004003700b0118000004f78000e0078000c
:10200c00d9ff070032c2bf00614060000004e0004d
:10201c00f8ff3a00fbff37000200fa00040037001b
:10202c0030118000004f78000e007800ceff0700c2
:10203c0022c2bf00614060000004e000f8ff3a00db
:10204c00fbff37000000fa00b0022000100c8800e3
:10205c005041210030368800302121004036880064
:10206c00c8c2a900c8e2a900c902a900c922a900d6
:10207c00b0022000100c8800b0022000400c880038
:10208c00b0022000700c8800b0022000a00c880068
:10209c0085a1a9008461a900411820009140780015
:1020ac0080cfb30000c060006040b30084e1b70093
:1020bc008ba1a9008a61a900a11820009140780089
:1020cc0080cfb30000c060006040b3008ae1b7006d
:1020dc0091a1a9009061a9000119200091407800fc
:1020ec0080cfb30000c060006040b30090e1b70047
:1020fc0097a1a9009661a900611920009140780070
:10210c0080cfb30000c060006040b30096e1b70020
:10211c000080fa00000006000800fa00000f7800aa
:10212c0012079800230798001e00780030079800cb
:10213c00be009000e38f5000180032003e0090006b
:10214c00e30f500007003c00be009000e18f5000f0
:10215c000c0032003e009000e20f50000c003200e8
:10216c001c003700be009000e48f50000e003200bf
:10217c0040062000be009000808f50000d00320001
:10218c00140037001e009000000c8800110037006e
:10219c001e009000300c88000e0037001e009000ce
:1021ac00600c88000b0037001e009000900c88001b
:1021bc00080037001e009000000c88001e009000e4
:1021cc00300c88001e009000600c88001e009000ef
:1021dc00900c88000000eb000080fa000000060064
:1021ec000400fa00004f780000c1b3009e4f1000ad
:1021fc0002003a00caa2a8000800370010c0b300c1
:10220c009e4f100002003a00caa2a900030037003a
:10221c000080eb0010079800020037000000eb0074
:10222c00100798001e0090000080fa0000000600c5
:020000040000fa
:10223c0080080000180000000200000000000000f0
:10224c000000000000000000000000000000000082
:10225c0000000000000000000000000098080000d2
:10226c0002000000000000009a08000002000000bc
:10227c0002000000000000000008000080000000c8
:10228c00000000009c080000a000000002000000fc
:10229c00010000000000000000000a000000000027
:1022ac0000000000006400000000000000000000be
:1022bc00e8030000000000000000100027000000f0
:1022cc000000000000a086000100000000000000db
:1022dc0040420f00000000000000800096980000b3
:1022ec00000000000000e100f50500000000000007
:1022fc0000ca9a003b00000000000000e40b5400f0
:10230c00020000000000e800764817000000000002
:10231c000010a500d4e8000000000000a0724e00e0
:10232c0018090000000040007a10f3005a00000069
:10233c000080c600a47e8d000300000000c16f0069
:10234c00f2862300000000008a5d780045630100de
:10235c0000006400a7b3b600e00d000000e889009f
:10236c000423c7008a0000003c0900002a0000007a
:10237c0002000000286e75006c6c290000303100e2
:10238c00323334003536370038394100424344008b
:10239c0045460000303132003334350036373800d2
:1023ac003961620063646500660000006609000024
:1023bc00260000000200000068098e0009000000e1
:1023cc008e0909000000000002008c0009000000ca
:1023dc008c09060002010000000000000000000053
:1023ec000000060002020000000000008c09000042
:1023fc00060000000000000092090000020000002e
:0c240c00020000000100000000000000c1
:020000040000fa
:102418000200fa00000f7800300020009e0f100024
:102428000e003a001221a9002111200091407800e5
:10243800f0ccb30000c0600012e1b7000000eb0070
:102448005008880010012000700888008500a90045
:102458009500a80013e1a80007003700200020001d
:102468009e0f100004003a00b03f22006008880068
:1024780000012800800888000080fa00000006009b
:10248800801f78003400f80000002000a0018800b8
:102498000000fa00104480000000e80010448800a2
:1024a80010448000e50f500002003a002023a900e4
:1024b8000500370010448000ec0f500002003a007d
:1024c8000000eb00104488008500a9000080fa0095
:0c24d8003400f9004f00780000400600be
:00000001FF
